{"contracts/HamsterNursery.sol":{"HamsterNursery":{"abi":[{"inputs":[],"stateMutability":"nonpayable","type":"constructor"},{"inputs":[{"internalType":"string","name":"_name","type":"string"},{"internalType":"enum HamsterNursery.ColorType","name":"_color","type":"uint8"},{"internalType":"enum HamsterNursery.PatternType","name":"_pattern","type":"uint8"}],"name":"createHamster","outputs":[],"stateMutability":"nonpayable","type":"function"},{"inputs":[],"name":"getCount","outputs":[{"internalType":"uint256","name":"","type":"uint256"}],"stateMutability":"view","type":"function"},{"inputs":[],"name":"getHamsters","outputs":[{"components":[{"internalType":"string","name":"name","type":"string"},{"internalType":"enum HamsterNursery.ColorType","name":"color","type":"uint8"},{"internalType":"enum HamsterNursery.PatternType","name":"pattern","type":"uint8"}],"internalType":"struct HamsterNursery.Hamster[]","name":"","type":"tuple[]"}],"stateMutability":"view","type":"function"},{"inputs":[{"internalType":"uint256","name":"","type":"uint256"}],"name":"hamsters","outputs":[{"internalType":"string","name":"name","type":"string"},{"internalType":"enum HamsterNursery.ColorType","name":"color","type":"uint8"},{"internalType":"enum HamsterNursery.PatternType","name":"pattern","type":"uint8"}],"stateMutability":"view","type":"function"},{"inputs":[{"components":[{"internalType":"string","name":"name","type":"string"},{"internalType":"enum HamsterNursery.ColorType","name":"color","type":"uint8"},{"internalType":"enum HamsterNursery.PatternType","name":"pattern","type":"uint8"}],"internalType":"struct HamsterNursery.Hamster","name":"hamster1","type":"tuple"},{"components":[{"internalType":"string","name":"name","type":"string"},{"internalType":"enum HamsterNursery.ColorType","name":"color","type":"uint8"},{"internalType":"enum HamsterNursery.PatternType","name":"pattern","type":"uint8"}],"internalType":"struct HamsterNursery.Hamster","name":"hamster2","type":"tuple"}],"name":"multiplyHamster","outputs":[],"stateMutability":"payable","type":"function"}],"evm":{"bytecode":{"linkReferences":{},"object":"60806040523480156200001157600080fd5b506200005c6040518060400160405280600781526020017f427562626c65730000000000000000000000000000000000000000000000000081525060026000620000ac60201b60201c565b620000a66040518060400160405280600681526020017f466c75666679000000000000000000000000000000000000000000000000000081525060066004620000ac60201b60201c565b62000537565b6000604051806060016040528085815260200184600d811115620000d557620000d4620001a7565b5b8152602001836004811115620000f057620000ef620001a7565b5b81525090506000819080600181540180825580915050600190039060005260206000209060020201600090919091909150600082015181600001908162000138919062000450565b5060208201518160010160006101000a81548160ff0219169083600d811115620001675762000166620001a7565b5b021790555060408201518160010160016101000a81548160ff021916908360048111156200019a5762000199620001a7565b5b0217905550505050505050565b7f4e487b7100000000000000000000000000000000000000000000000000000000600052602160045260246000fd5b600081519050919050565b7f4e487b7100000000000000000000000000000000000000000000000000000000600052604160045260246000fd5b7f4e487b7100000000000000000000000000000000000000000000000000000000600052602260045260246000fd5b600060028204905060018216806200025857607f821691505b6020821081036200026e576200026d62000210565b5b50919050565b60008190508160005260206000209050919050565b60006020601f8301049050919050565b600082821b905092915050565b600060088302620002d87fffffffffffffffffffffffffffffffffffffffffffffffffffffffffffffffff8262000299565b620002e4868362000299565b95508019841693508086168417925050509392505050565b6000819050919050565b6000819050919050565b6000620003316200032b6200032584620002fc565b62000306565b620002fc565b9050919050565b6000819050919050565b6200034d8362000310565b620003656200035c8262000338565b848454620002a6565b825550505050565b600090565b6200037c6200036d565b6200038981848462000342565b505050565b5b81811015620003b157620003a560008262000372565b6001810190506200038f565b5050565b601f8211156200040057620003ca8162000274565b620003d58462000289565b81016020851015620003e5578190505b620003fd620003f48562000289565b8301826200038e565b50505b505050565b600082821c905092915050565b6000620004256000198460080262000405565b1980831691505092915050565b600062000440838362000412565b9150826002028217905092915050565b6200045b82620001d6565b67ffffffffffffffff811115620004775762000476620001e1565b5b6200048382546200023f565b62000490828285620003b5565b600060209050601f831160018114620004c85760008415620004b3578287015190505b620004bf858262000432565b8655506200052f565b601f198416620004d88662000274565b60005b828110156200050257848901518255600182019150602085019450602081019050620004db565b868310156200052257848901516200051e601f89168262000412565b8355505b6001600288020188555050505b505050505050565b61116c80620005476000396000f3fe60806040526004361061004a5760003560e01c80635660f5f41461004f5780635c929f2f1461008e57806368204c2d146100aa578063a87d942c146100d5578063b3e6f64a14610100575b600080fd5b34801561005b57600080fd5b506100766004803603810190610071919061064b565b610129565b604051610085939291906107c7565b60405180910390f35b6100a860048036038101906100a39190610a0e565b610205565b005b3480156100b657600080fd5b506100bf6103a1565b6040516100cc9190610c00565b60405180910390f35b3480156100e157600080fd5b506100ea610508565b6040516100f79190610c31565b60405180910390f35b34801561010c57600080fd5b5061012760048036038101906101229190610c4c565b610514565b005b6000818154811061013957600080fd5b906000526020600020906002020160009150905080600001805461015c90610cea565b80601f016020809104026020016040519081016040528092919081815260200182805461018890610cea565b80156101d55780601f106101aa576101008083540402835291602001916101d5565b820191906000526020600020905b8154815290600101906020018083116101b857829003601f168201915b5050505050908060010160009054906101000a900460ff16908060010160019054906101000a900460ff16905083565b66b1a2bc2ec5000034101561024f576040517f08c379a000000000000000000000000000000000000000000000000000000000815260040161024690610d67565b60405180910390fd5b60008260200151600d81111561026857610267610708565b5b905060008260200151600d81111561028357610282610708565b5b905060006001600d8081111561029c5761029b610708565b5b6102a69190610dc3565b905060008183856102b79190610dc3565b6102c19190610e27565b90506000866040015160048111156102dc576102db610708565b5b90506000866040015160048111156102f7576102f6610708565b5b9050600060016004808111156103105761030f610708565b5b61031a9190610dc3565b9050600081838561032b9190610dc3565b6103359190610e27565b90506103958a600001518a60000151604051602001610355929190610e94565b6040516020818303038152906040528660ff16600d81111561037a57610379610708565b5b8360ff1660048111156103905761038f610708565b5b610514565b50505050505050505050565b60606000805480602002602001604051908101604052809291908181526020016000905b828210156104ff57838290600052602060002090600202016040518060600160405290816000820180546103f890610cea565b80601f016020809104026020016040519081016040528092919081815260200182805461042490610cea565b80156104715780601f1061044657610100808354040283529160200191610471565b820191906000526020600020905b81548152906001019060200180831161045457829003601f168201915b505050505081526020016001820160009054906101000a900460ff16600d81111561049f5761049e610708565b5b600d8111156104b1576104b0610708565b5b81526020016001820160019054906101000a900460ff1660048111156104da576104d9610708565b5b60048111156104ec576104eb610708565b5b81525050815260200190600101906103c5565b50505050905090565b60008080549050905090565b6000604051806060016040528085815260200184600d81111561053a57610539610708565b5b815260200183600481111561055257610551610708565b5b8152509050600081908060018154018082558091505060019003906000526020600020906002020160009091909190915060008201518160000190816105989190611064565b5060208201518160010160006101000a81548160ff0219169083600d8111156105c4576105c3610708565b5b021790555060408201518160010160016101000a81548160ff021916908360048111156105f4576105f3610708565b5b0217905550505050505050565b6000604051905090565b600080fd5b600080fd5b6000819050919050565b61062881610615565b811461063357600080fd5b50565b6000813590506106458161061f565b92915050565b6000602082840312156106615761066061060b565b5b600061066f84828501610636565b91505092915050565b600081519050919050565b600082825260208201905092915050565b60005b838110156106b2578082015181840152602081019050610697565b60008484015250505050565b6000601f19601f8301169050919050565b60006106da82610678565b6106e48185610683565b93506106f4818560208601610694565b6106fd816106be565b840191505092915050565b7f4e487b7100000000000000000000000000000000000000000000000000000000600052602160045260246000fd5b600e811061074857610747610708565b5b50565b600081905061075982610737565b919050565b60006107698261074b565b9050919050565b6107798161075e565b82525050565b600581106107905761078f610708565b5b50565b60008190506107a18261077f565b919050565b60006107b182610793565b9050919050565b6107c1816107a6565b82525050565b600060608201905081810360008301526107e181866106cf565b90506107f06020830185610770565b6107fd60408301846107b8565b949350505050565b600080fd5b7f4e487b7100000000000000000000000000000000000000000000000000000000600052604160045260246000fd5b610842826106be565b810181811067ffffffffffffffff821117156108615761086061080a565b5b80604052505050565b6000610874610601565b90506108808282610839565b919050565b600080fd5b600080fd5b600080fd5b600067ffffffffffffffff8211156108af576108ae61080a565b5b6108b8826106be565b9050602081019050919050565b82818337600083830152505050565b60006108e76108e284610894565b61086a565b9050828152602081018484840111156109035761090261088f565b5b61090e8482856108c5565b509392505050565b600082601f83011261092b5761092a61088a565b5b813561093b8482602086016108d4565b91505092915050565b600e811061095157600080fd5b50565b60008135905061096381610944565b92915050565b6005811061097657600080fd5b50565b60008135905061098881610969565b92915050565b6000606082840312156109a4576109a3610805565b5b6109ae606061086a565b9050600082013567ffffffffffffffff8111156109ce576109cd610885565b5b6109da84828501610916565b60008301525060206109ee84828501610954565b6020830152506040610a0284828501610979565b60408301525092915050565b60008060408385031215610a2557610a2461060b565b5b600083013567ffffffffffffffff811115610a4357610a42610610565b5b610a4f8582860161098e565b925050602083013567ffffffffffffffff811115610a7057610a6f610610565b5b610a7c8582860161098e565b9150509250929050565b600081519050919050565b600082825260208201905092915050565b6000819050602082019050919050565b600082825260208201905092915050565b6000610ace82610678565b610ad88185610ab2565b9350610ae8818560208601610694565b610af1816106be565b840191505092915050565b610b058161075e565b82525050565b610b14816107a6565b82525050565b60006060830160008301518482036000860152610b378282610ac3565b9150506020830151610b4c6020860182610afc565b506040830151610b5f6040860182610b0b565b508091505092915050565b6000610b768383610b1a565b905092915050565b6000602082019050919050565b6000610b9682610a86565b610ba08185610a91565b935083602082028501610bb285610aa2565b8060005b85811015610bee5784840389528151610bcf8582610b6a565b9450610bda83610b7e565b925060208a01995050600181019050610bb6565b50829750879550505050505092915050565b60006020820190508181036000830152610c1a8184610b8b565b905092915050565b610c2b81610615565b82525050565b6000602082019050610c466000830184610c22565b92915050565b600080600060608486031215610c6557610c6461060b565b5b600084013567ffffffffffffffff811115610c8357610c82610610565b5b610c8f86828701610916565b9350506020610ca086828701610954565b9250506040610cb186828701610979565b9150509250925092565b7f4e487b7100000000000000000000000000000000000000000000000000000000600052602260045260246000fd5b60006002820490506001821680610d0257607f821691505b602082108103610d1557610d14610cbb565b5b50919050565b7f506c656173652073656e64206174206c6561737420302e303520455448000000600082015250565b6000610d51601d83610683565b9150610d5c82610d1b565b602082019050919050565b60006020820190508181036000830152610d8081610d44565b9050919050565b600060ff82169050919050565b7f4e487b7100000000000000000000000000000000000000000000000000000000600052601160045260246000fd5b6000610dce82610d87565b9150610dd983610d87565b9250828201905060ff811115610df257610df1610d94565b5b92915050565b7f4e487b7100000000000000000000000000000000000000000000000000000000600052601260045260246000fd5b6000610e3282610d87565b9150610e3d83610d87565b925082610e4d57610e4c610df8565b5b828206905092915050565b600081905092915050565b6000610e6e82610678565b610e788185610e58565b9350610e88818560208601610694565b80840191505092915050565b6000610ea08285610e63565b9150610eac8284610e63565b91508190509392505050565b60008190508160005260206000209050919050565b60006020601f8301049050919050565b600082821b905092915050565b600060088302610f1a7fffffffffffffffffffffffffffffffffffffffffffffffffffffffffffffffff82610edd565b610f248683610edd565b95508019841693508086168417925050509392505050565b6000819050919050565b6000610f61610f5c610f5784610615565b610f3c565b610615565b9050919050565b6000819050919050565b610f7b83610f46565b610f8f610f8782610f68565b848454610eea565b825550505050565b600090565b610fa4610f97565b610faf818484610f72565b505050565b5b81811015610fd357610fc8600082610f9c565b600181019050610fb5565b5050565b601f82111561101857610fe981610eb8565b610ff284610ecd565b81016020851015611001578190505b61101561100d85610ecd565b830182610fb4565b50505b505050565b600082821c905092915050565b600061103b6000198460080261101d565b1980831691505092915050565b6000611054838361102a565b9150826002028217905092915050565b61106d82610678565b67ffffffffffffffff8111156110865761108561080a565b5b6110908254610cea565b61109b828285610fd7565b600060209050601f8311600181146110ce57600084156110bc578287015190505b6110c68582611048565b86555061112e565b601f1984166110dc86610eb8565b60005b82811015611104578489015182556001820191506020850194506020810190506110df565b86831015611121578489015161111d601f89168261102a565b8355505b6001600288020188555050505b50505050505056fea2646970667358221220ab9592874a962a09256c944462624bbf124e950a6657a11429354567bbbfb1cb64736f6c63430008110033","opcodes":"PUSH1 0x80 PUSH1 0x40 MSTORE CALLVALUE DUP1 ISZERO PUSH3 0x11 JUMPI PUSH1 0x0 DUP1 REVERT JUMPDEST POP PUSH3 0x5C PUSH1 0x40 MLOAD DUP1 PUSH1 0x40 ADD PUSH1 0x40 MSTORE DUP1 PUSH1 0x7 DUP2 MSTORE PUSH1 0x20 ADD PUSH32 0x427562626C657300000000000000000000000000000000000000000000000000 DUP2 MSTORE POP PUSH1 0x2 PUSH1 0x0 PUSH3 0xAC PUSH1 0x20 SHL PUSH1 0x20 SHR JUMP JUMPDEST PUSH3 0xA6 PUSH1 0x40 MLOAD DUP1 PUSH1 0x40 ADD PUSH1 0x40 MSTORE DUP1 PUSH1 0x6 DUP2 MSTORE PUSH1 0x20 ADD PUSH32 0x466C756666790000000000000000000000000000000000000000000000000000 DUP2 MSTORE POP PUSH1 0x6 PUSH1 0x4 PUSH3 0xAC PUSH1 0x20 SHL PUSH1 0x20 SHR JUMP JUMPDEST PUSH3 0x537 JUMP JUMPDEST PUSH1 0x0 PUSH1 0x40 MLOAD DUP1 PUSH1 0x60 ADD PUSH1 0x40 MSTORE DUP1 DUP6 DUP2 MSTORE PUSH1 0x20 ADD DUP5 PUSH1 0xD DUP2 GT ISZERO PUSH3 0xD5 JUMPI PUSH3 0xD4 PUSH3 0x1A7 JUMP JUMPDEST JUMPDEST DUP2 MSTORE PUSH1 0x20 ADD DUP4 PUSH1 0x4 DUP2 GT ISZERO PUSH3 0xF0 JUMPI PUSH3 0xEF PUSH3 0x1A7 JUMP JUMPDEST JUMPDEST DUP2 MSTORE POP SWAP1 POP PUSH1 0x0 DUP2 SWAP1 DUP1 PUSH1 0x1 DUP2 SLOAD ADD DUP1 DUP3 SSTORE DUP1 SWAP2 POP POP PUSH1 0x1 SWAP1 SUB SWAP1 PUSH1 0x0 MSTORE PUSH1 0x20 PUSH1 0x0 KECCAK256 SWAP1 PUSH1 0x2 MUL ADD PUSH1 0x0 SWAP1 SWAP2 SWAP1 SWAP2 SWAP1 SWAP2 POP PUSH1 0x0 DUP3 ADD MLOAD DUP2 PUSH1 0x0 ADD SWAP1 DUP2 PUSH3 0x138 SWAP2 SWAP1 PUSH3 0x450 JUMP JUMPDEST POP PUSH1 0x20 DUP3 ADD MLOAD DUP2 PUSH1 0x1 ADD PUSH1 0x0 PUSH2 0x100 EXP DUP2 SLOAD DUP2 PUSH1 0xFF MUL NOT AND SWAP1 DUP4 PUSH1 0xD DUP2 GT ISZERO PUSH3 0x167 JUMPI PUSH3 0x166 PUSH3 0x1A7 JUMP JUMPDEST JUMPDEST MUL OR SWAP1 SSTORE POP PUSH1 0x40 DUP3 ADD MLOAD DUP2 PUSH1 0x1 ADD PUSH1 0x1 PUSH2 0x100 EXP DUP2 SLOAD DUP2 PUSH1 0xFF MUL NOT AND SWAP1 DUP4 PUSH1 0x4 DUP2 GT ISZERO PUSH3 0x19A JUMPI PUSH3 0x199 PUSH3 0x1A7 JUMP JUMPDEST JUMPDEST MUL OR SWAP1 SSTORE POP POP POP POP POP POP POP JUMP JUMPDEST PUSH32 0x4E487B7100000000000000000000000000000000000000000000000000000000 PUSH1 0x0 MSTORE PUSH1 0x21 PUSH1 0x4 MSTORE PUSH1 0x24 PUSH1 0x0 REVERT JUMPDEST PUSH1 0x0 DUP2 MLOAD SWAP1 POP SWAP2 SWAP1 POP JUMP JUMPDEST PUSH32 0x4E487B7100000000000000000000000000000000000000000000000000000000 PUSH1 0x0 MSTORE PUSH1 0x41 PUSH1 0x4 MSTORE PUSH1 0x24 PUSH1 0x0 REVERT JUMPDEST PUSH32 0x4E487B7100000000000000000000000000000000000000000000000000000000 PUSH1 0x0 MSTORE PUSH1 0x22 PUSH1 0x4 MSTORE PUSH1 0x24 PUSH1 0x0 REVERT JUMPDEST PUSH1 0x0 PUSH1 0x2 DUP3 DIV SWAP1 POP PUSH1 0x1 DUP3 AND DUP1 PUSH3 0x258 JUMPI PUSH1 0x7F DUP3 AND SWAP2 POP JUMPDEST PUSH1 0x20 DUP3 LT DUP2 SUB PUSH3 0x26E JUMPI PUSH3 0x26D PUSH3 0x210 JUMP JUMPDEST JUMPDEST POP SWAP2 SWAP1 POP JUMP JUMPDEST PUSH1 0x0 DUP2 SWAP1 POP DUP2 PUSH1 0x0 MSTORE PUSH1 0x20 PUSH1 0x0 KECCAK256 SWAP1 POP SWAP2 SWAP1 POP JUMP JUMPDEST PUSH1 0x0 PUSH1 0x20 PUSH1 0x1F DUP4 ADD DIV SWAP1 POP SWAP2 SWAP1 POP JUMP JUMPDEST PUSH1 0x0 DUP3 DUP3 SHL SWAP1 POP SWAP3 SWAP2 POP POP JUMP JUMPDEST PUSH1 0x0 PUSH1 0x8 DUP4 MUL PUSH3 0x2D8 PUSH32 0xFFFFFFFFFFFFFFFFFFFFFFFFFFFFFFFFFFFFFFFFFFFFFFFFFFFFFFFFFFFFFFFF DUP3 PUSH3 0x299 JUMP JUMPDEST PUSH3 0x2E4 DUP7 DUP4 PUSH3 0x299 JUMP JUMPDEST SWAP6 POP DUP1 NOT DUP5 AND SWAP4 POP DUP1 DUP7 AND DUP5 OR SWAP3 POP POP POP SWAP4 SWAP3 POP POP POP JUMP JUMPDEST PUSH1 0x0 DUP2 SWAP1 POP SWAP2 SWAP1 POP JUMP JUMPDEST PUSH1 0x0 DUP2 SWAP1 POP SWAP2 SWAP1 POP JUMP JUMPDEST PUSH1 0x0 PUSH3 0x331 PUSH3 0x32B PUSH3 0x325 DUP5 PUSH3 0x2FC JUMP JUMPDEST PUSH3 0x306 JUMP JUMPDEST PUSH3 0x2FC JUMP JUMPDEST SWAP1 POP SWAP2 SWAP1 POP JUMP JUMPDEST PUSH1 0x0 DUP2 SWAP1 POP SWAP2 SWAP1 POP JUMP JUMPDEST PUSH3 0x34D DUP4 PUSH3 0x310 JUMP JUMPDEST PUSH3 0x365 PUSH3 0x35C DUP3 PUSH3 0x338 JUMP JUMPDEST DUP5 DUP5 SLOAD PUSH3 0x2A6 JUMP JUMPDEST DUP3 SSTORE POP POP POP POP JUMP JUMPDEST PUSH1 0x0 SWAP1 JUMP JUMPDEST PUSH3 0x37C PUSH3 0x36D JUMP JUMPDEST PUSH3 0x389 DUP2 DUP5 DUP5 PUSH3 0x342 JUMP JUMPDEST POP POP POP JUMP JUMPDEST JUMPDEST DUP2 DUP2 LT ISZERO PUSH3 0x3B1 JUMPI PUSH3 0x3A5 PUSH1 0x0 DUP3 PUSH3 0x372 JUMP JUMPDEST PUSH1 0x1 DUP2 ADD SWAP1 POP PUSH3 0x38F JUMP JUMPDEST POP POP JUMP JUMPDEST PUSH1 0x1F DUP3 GT ISZERO PUSH3 0x400 JUMPI PUSH3 0x3CA DUP2 PUSH3 0x274 JUMP JUMPDEST PUSH3 0x3D5 DUP5 PUSH3 0x289 JUMP JUMPDEST DUP2 ADD PUSH1 0x20 DUP6 LT ISZERO PUSH3 0x3E5 JUMPI DUP2 SWAP1 POP JUMPDEST PUSH3 0x3FD PUSH3 0x3F4 DUP6 PUSH3 0x289 JUMP JUMPDEST DUP4 ADD DUP3 PUSH3 0x38E JUMP JUMPDEST POP POP JUMPDEST POP POP POP JUMP JUMPDEST PUSH1 0x0 DUP3 DUP3 SHR SWAP1 POP SWAP3 SWAP2 POP POP JUMP JUMPDEST PUSH1 0x0 PUSH3 0x425 PUSH1 0x0 NOT DUP5 PUSH1 0x8 MUL PUSH3 0x405 JUMP JUMPDEST NOT DUP1 DUP4 AND SWAP2 POP POP SWAP3 SWAP2 POP POP JUMP JUMPDEST PUSH1 0x0 PUSH3 0x440 DUP4 DUP4 PUSH3 0x412 JUMP JUMPDEST SWAP2 POP DUP3 PUSH1 0x2 MUL DUP3 OR SWAP1 POP SWAP3 SWAP2 POP POP JUMP JUMPDEST PUSH3 0x45B DUP3 PUSH3 0x1D6 JUMP JUMPDEST PUSH8 0xFFFFFFFFFFFFFFFF DUP2 GT ISZERO PUSH3 0x477 JUMPI PUSH3 0x476 PUSH3 0x1E1 JUMP JUMPDEST JUMPDEST PUSH3 0x483 DUP3 SLOAD PUSH3 0x23F JUMP JUMPDEST PUSH3 0x490 DUP3 DUP3 DUP6 PUSH3 0x3B5 JUMP JUMPDEST PUSH1 0x0 PUSH1 0x20 SWAP1 POP PUSH1 0x1F DUP4 GT PUSH1 0x1 DUP2 EQ PUSH3 0x4C8 JUMPI PUSH1 0x0 DUP5 ISZERO PUSH3 0x4B3 JUMPI DUP3 DUP8 ADD MLOAD SWAP1 POP JUMPDEST PUSH3 0x4BF DUP6 DUP3 PUSH3 0x432 JUMP JUMPDEST DUP7 SSTORE POP PUSH3 0x52F JUMP JUMPDEST PUSH1 0x1F NOT DUP5 AND PUSH3 0x4D8 DUP7 PUSH3 0x274 JUMP JUMPDEST PUSH1 0x0 JUMPDEST DUP3 DUP2 LT ISZERO PUSH3 0x502 JUMPI DUP5 DUP10 ADD MLOAD DUP3 SSTORE PUSH1 0x1 DUP3 ADD SWAP2 POP PUSH1 0x20 DUP6 ADD SWAP5 POP PUSH1 0x20 DUP2 ADD SWAP1 POP PUSH3 0x4DB JUMP JUMPDEST DUP7 DUP4 LT ISZERO PUSH3 0x522 JUMPI DUP5 DUP10 ADD MLOAD PUSH3 0x51E PUSH1 0x1F DUP10 AND DUP3 PUSH3 0x412 JUMP JUMPDEST DUP4 SSTORE POP JUMPDEST PUSH1 0x1 PUSH1 0x2 DUP9 MUL ADD DUP9 SSTORE POP POP POP JUMPDEST POP POP POP POP POP POP JUMP JUMPDEST PUSH2 0x116C DUP1 PUSH3 0x547 PUSH1 0x0 CODECOPY PUSH1 0x0 RETURN INVALID PUSH1 0x80 PUSH1 0x40 MSTORE PUSH1 0x4 CALLDATASIZE LT PUSH2 0x4A JUMPI PUSH1 0x0 CALLDATALOAD PUSH1 0xE0 SHR DUP1 PUSH4 0x5660F5F4 EQ PUSH2 0x4F JUMPI DUP1 PUSH4 0x5C929F2F EQ PUSH2 0x8E JUMPI DUP1 PUSH4 0x68204C2D EQ PUSH2 0xAA JUMPI DUP1 PUSH4 0xA87D942C EQ PUSH2 0xD5 JUMPI DUP1 PUSH4 0xB3E6F64A EQ PUSH2 0x100 JUMPI JUMPDEST PUSH1 0x0 DUP1 REVERT JUMPDEST CALLVALUE DUP1 ISZERO PUSH2 0x5B JUMPI PUSH1 0x0 DUP1 REVERT JUMPDEST POP PUSH2 0x76 PUSH1 0x4 DUP1 CALLDATASIZE SUB DUP2 ADD SWAP1 PUSH2 0x71 SWAP2 SWAP1 PUSH2 0x64B JUMP JUMPDEST PUSH2 0x129 JUMP JUMPDEST PUSH1 0x40 MLOAD PUSH2 0x85 SWAP4 SWAP3 SWAP2 SWAP1 PUSH2 0x7C7 JUMP JUMPDEST PUSH1 0x40 MLOAD DUP1 SWAP2 SUB SWAP1 RETURN JUMPDEST PUSH2 0xA8 PUSH1 0x4 DUP1 CALLDATASIZE SUB DUP2 ADD SWAP1 PUSH2 0xA3 SWAP2 SWAP1 PUSH2 0xA0E JUMP JUMPDEST PUSH2 0x205 JUMP JUMPDEST STOP JUMPDEST CALLVALUE DUP1 ISZERO PUSH2 0xB6 JUMPI PUSH1 0x0 DUP1 REVERT JUMPDEST POP PUSH2 0xBF PUSH2 0x3A1 JUMP JUMPDEST PUSH1 0x40 MLOAD PUSH2 0xCC SWAP2 SWAP1 PUSH2 0xC00 JUMP JUMPDEST PUSH1 0x40 MLOAD DUP1 SWAP2 SUB SWAP1 RETURN JUMPDEST CALLVALUE DUP1 ISZERO PUSH2 0xE1 JUMPI PUSH1 0x0 DUP1 REVERT JUMPDEST POP PUSH2 0xEA PUSH2 0x508 JUMP JUMPDEST PUSH1 0x40 MLOAD PUSH2 0xF7 SWAP2 SWAP1 PUSH2 0xC31 JUMP JUMPDEST PUSH1 0x40 MLOAD DUP1 SWAP2 SUB SWAP1 RETURN JUMPDEST CALLVALUE DUP1 ISZERO PUSH2 0x10C JUMPI PUSH1 0x0 DUP1 REVERT JUMPDEST POP PUSH2 0x127 PUSH1 0x4 DUP1 CALLDATASIZE SUB DUP2 ADD SWAP1 PUSH2 0x122 SWAP2 SWAP1 PUSH2 0xC4C JUMP JUMPDEST PUSH2 0x514 JUMP JUMPDEST STOP JUMPDEST PUSH1 0x0 DUP2 DUP2 SLOAD DUP2 LT PUSH2 0x139 JUMPI PUSH1 0x0 DUP1 REVERT JUMPDEST SWAP1 PUSH1 0x0 MSTORE PUSH1 0x20 PUSH1 0x0 KECCAK256 SWAP1 PUSH1 0x2 MUL ADD PUSH1 0x0 SWAP2 POP SWAP1 POP DUP1 PUSH1 0x0 ADD DUP1 SLOAD PUSH2 0x15C SWAP1 PUSH2 0xCEA JUMP JUMPDEST DUP1 PUSH1 0x1F ADD PUSH1 0x20 DUP1 SWAP2 DIV MUL PUSH1 0x20 ADD PUSH1 0x40 MLOAD SWAP1 DUP2 ADD PUSH1 0x40 MSTORE DUP1 SWAP3 SWAP2 SWAP1 DUP2 DUP2 MSTORE PUSH1 0x20 ADD DUP3 DUP1 SLOAD PUSH2 0x188 SWAP1 PUSH2 0xCEA JUMP JUMPDEST DUP1 ISZERO PUSH2 0x1D5 JUMPI DUP1 PUSH1 0x1F LT PUSH2 0x1AA JUMPI PUSH2 0x100 DUP1 DUP4 SLOAD DIV MUL DUP4 MSTORE SWAP2 PUSH1 0x20 ADD SWAP2 PUSH2 0x1D5 JUMP JUMPDEST DUP3 ADD SWAP2 SWAP1 PUSH1 0x0 MSTORE PUSH1 0x20 PUSH1 0x0 KECCAK256 SWAP1 JUMPDEST DUP2 SLOAD DUP2 MSTORE SWAP1 PUSH1 0x1 ADD SWAP1 PUSH1 0x20 ADD DUP1 DUP4 GT PUSH2 0x1B8 JUMPI DUP3 SWAP1 SUB PUSH1 0x1F AND DUP3 ADD SWAP2 JUMPDEST POP POP POP POP POP SWAP1 DUP1 PUSH1 0x1 ADD PUSH1 0x0 SWAP1 SLOAD SWAP1 PUSH2 0x100 EXP SWAP1 DIV PUSH1 0xFF AND SWAP1 DUP1 PUSH1 0x1 ADD PUSH1 0x1 SWAP1 SLOAD SWAP1 PUSH2 0x100 EXP SWAP1 DIV PUSH1 0xFF AND SWAP1 POP DUP4 JUMP JUMPDEST PUSH7 0xB1A2BC2EC50000 CALLVALUE LT ISZERO PUSH2 0x24F JUMPI PUSH1 0x40 MLOAD PUSH32 0x8C379A000000000000000000000000000000000000000000000000000000000 DUP2 MSTORE PUSH1 0x4 ADD PUSH2 0x246 SWAP1 PUSH2 0xD67 JUMP JUMPDEST PUSH1 0x40 MLOAD DUP1 SWAP2 SUB SWAP1 REVERT JUMPDEST PUSH1 0x0 DUP3 PUSH1 0x20 ADD MLOAD PUSH1 0xD DUP2 GT ISZERO PUSH2 0x268 JUMPI PUSH2 0x267 PUSH2 0x708 JUMP JUMPDEST JUMPDEST SWAP1 POP PUSH1 0x0 DUP3 PUSH1 0x20 ADD MLOAD PUSH1 0xD DUP2 GT ISZERO PUSH2 0x283 JUMPI PUSH2 0x282 PUSH2 0x708 JUMP JUMPDEST JUMPDEST SWAP1 POP PUSH1 0x0 PUSH1 0x1 PUSH1 0xD DUP1 DUP2 GT ISZERO PUSH2 0x29C JUMPI PUSH2 0x29B PUSH2 0x708 JUMP JUMPDEST JUMPDEST PUSH2 0x2A6 SWAP2 SWAP1 PUSH2 0xDC3 JUMP JUMPDEST SWAP1 POP PUSH1 0x0 DUP2 DUP4 DUP6 PUSH2 0x2B7 SWAP2 SWAP1 PUSH2 0xDC3 JUMP JUMPDEST PUSH2 0x2C1 SWAP2 SWAP1 PUSH2 0xE27 JUMP JUMPDEST SWAP1 POP PUSH1 0x0 DUP7 PUSH1 0x40 ADD MLOAD PUSH1 0x4 DUP2 GT ISZERO PUSH2 0x2DC JUMPI PUSH2 0x2DB PUSH2 0x708 JUMP JUMPDEST JUMPDEST SWAP1 POP PUSH1 0x0 DUP7 PUSH1 0x40 ADD MLOAD PUSH1 0x4 DUP2 GT ISZERO PUSH2 0x2F7 JUMPI PUSH2 0x2F6 PUSH2 0x708 JUMP JUMPDEST JUMPDEST SWAP1 POP PUSH1 0x0 PUSH1 0x1 PUSH1 0x4 DUP1 DUP2 GT ISZERO PUSH2 0x310 JUMPI PUSH2 0x30F PUSH2 0x708 JUMP JUMPDEST JUMPDEST PUSH2 0x31A SWAP2 SWAP1 PUSH2 0xDC3 JUMP JUMPDEST SWAP1 POP PUSH1 0x0 DUP2 DUP4 DUP6 PUSH2 0x32B SWAP2 SWAP1 PUSH2 0xDC3 JUMP JUMPDEST PUSH2 0x335 SWAP2 SWAP1 PUSH2 0xE27 JUMP JUMPDEST SWAP1 POP PUSH2 0x395 DUP11 PUSH1 0x0 ADD MLOAD DUP11 PUSH1 0x0 ADD MLOAD PUSH1 0x40 MLOAD PUSH1 0x20 ADD PUSH2 0x355 SWAP3 SWAP2 SWAP1 PUSH2 0xE94 JUMP JUMPDEST PUSH1 0x40 MLOAD PUSH1 0x20 DUP2 DUP4 SUB SUB DUP2 MSTORE SWAP1 PUSH1 0x40 MSTORE DUP7 PUSH1 0xFF AND PUSH1 0xD DUP2 GT ISZERO PUSH2 0x37A JUMPI PUSH2 0x379 PUSH2 0x708 JUMP JUMPDEST JUMPDEST DUP4 PUSH1 0xFF AND PUSH1 0x4 DUP2 GT ISZERO PUSH2 0x390 JUMPI PUSH2 0x38F PUSH2 0x708 JUMP JUMPDEST JUMPDEST PUSH2 0x514 JUMP JUMPDEST POP POP POP POP POP POP POP POP POP POP JUMP JUMPDEST PUSH1 0x60 PUSH1 0x0 DUP1 SLOAD DUP1 PUSH1 0x20 MUL PUSH1 0x20 ADD PUSH1 0x40 MLOAD SWAP1 DUP2 ADD PUSH1 0x40 MSTORE DUP1 SWAP3 SWAP2 SWAP1 DUP2 DUP2 MSTORE PUSH1 0x20 ADD PUSH1 0x0 SWAP1 JUMPDEST DUP3 DUP3 LT ISZERO PUSH2 0x4FF JUMPI DUP4 DUP3 SWAP1 PUSH1 0x0 MSTORE PUSH1 0x20 PUSH1 0x0 KECCAK256 SWAP1 PUSH1 0x2 MUL ADD PUSH1 0x40 MLOAD DUP1 PUSH1 0x60 ADD PUSH1 0x40 MSTORE SWAP1 DUP2 PUSH1 0x0 DUP3 ADD DUP1 SLOAD PUSH2 0x3F8 SWAP1 PUSH2 0xCEA JUMP JUMPDEST DUP1 PUSH1 0x1F ADD PUSH1 0x20 DUP1 SWAP2 DIV MUL PUSH1 0x20 ADD PUSH1 0x40 MLOAD SWAP1 DUP2 ADD PUSH1 0x40 MSTORE DUP1 SWAP3 SWAP2 SWAP1 DUP2 DUP2 MSTORE PUSH1 0x20 ADD DUP3 DUP1 SLOAD PUSH2 0x424 SWAP1 PUSH2 0xCEA JUMP JUMPDEST DUP1 ISZERO PUSH2 0x471 JUMPI DUP1 PUSH1 0x1F LT PUSH2 0x446 JUMPI PUSH2 0x100 DUP1 DUP4 SLOAD DIV MUL DUP4 MSTORE SWAP2 PUSH1 0x20 ADD SWAP2 PUSH2 0x471 JUMP JUMPDEST DUP3 ADD SWAP2 SWAP1 PUSH1 0x0 MSTORE PUSH1 0x20 PUSH1 0x0 KECCAK256 SWAP1 JUMPDEST DUP2 SLOAD DUP2 MSTORE SWAP1 PUSH1 0x1 ADD SWAP1 PUSH1 0x20 ADD DUP1 DUP4 GT PUSH2 0x454 JUMPI DUP3 SWAP1 SUB PUSH1 0x1F AND DUP3 ADD SWAP2 JUMPDEST POP POP POP POP POP DUP2 MSTORE PUSH1 0x20 ADD PUSH1 0x1 DUP3 ADD PUSH1 0x0 SWAP1 SLOAD SWAP1 PUSH2 0x100 EXP SWAP1 DIV PUSH1 0xFF AND PUSH1 0xD DUP2 GT ISZERO PUSH2 0x49F JUMPI PUSH2 0x49E PUSH2 0x708 JUMP JUMPDEST JUMPDEST PUSH1 0xD DUP2 GT ISZERO PUSH2 0x4B1 JUMPI PUSH2 0x4B0 PUSH2 0x708 JUMP JUMPDEST JUMPDEST DUP2 MSTORE PUSH1 0x20 ADD PUSH1 0x1 DUP3 ADD PUSH1 0x1 SWAP1 SLOAD SWAP1 PUSH2 0x100 EXP SWAP1 DIV PUSH1 0xFF AND PUSH1 0x4 DUP2 GT ISZERO PUSH2 0x4DA JUMPI PUSH2 0x4D9 PUSH2 0x708 JUMP JUMPDEST JUMPDEST PUSH1 0x4 DUP2 GT ISZERO PUSH2 0x4EC JUMPI PUSH2 0x4EB PUSH2 0x708 JUMP JUMPDEST JUMPDEST DUP2 MSTORE POP POP DUP2 MSTORE PUSH1 0x20 ADD SWAP1 PUSH1 0x1 ADD SWAP1 PUSH2 0x3C5 JUMP JUMPDEST POP POP POP POP SWAP1 POP SWAP1 JUMP JUMPDEST PUSH1 0x0 DUP1 DUP1 SLOAD SWAP1 POP SWAP1 POP SWAP1 JUMP JUMPDEST PUSH1 0x0 PUSH1 0x40 MLOAD DUP1 PUSH1 0x60 ADD PUSH1 0x40 MSTORE DUP1 DUP6 DUP2 MSTORE PUSH1 0x20 ADD DUP5 PUSH1 0xD DUP2 GT ISZERO PUSH2 0x53A JUMPI PUSH2 0x539 PUSH2 0x708 JUMP JUMPDEST JUMPDEST DUP2 MSTORE PUSH1 0x20 ADD DUP4 PUSH1 0x4 DUP2 GT ISZERO PUSH2 0x552 JUMPI PUSH2 0x551 PUSH2 0x708 JUMP JUMPDEST JUMPDEST DUP2 MSTORE POP SWAP1 POP PUSH1 0x0 DUP2 SWAP1 DUP1 PUSH1 0x1 DUP2 SLOAD ADD DUP1 DUP3 SSTORE DUP1 SWAP2 POP POP PUSH1 0x1 SWAP1 SUB SWAP1 PUSH1 0x0 MSTORE PUSH1 0x20 PUSH1 0x0 KECCAK256 SWAP1 PUSH1 0x2 MUL ADD PUSH1 0x0 SWAP1 SWAP2 SWAP1 SWAP2 SWAP1 SWAP2 POP PUSH1 0x0 DUP3 ADD MLOAD DUP2 PUSH1 0x0 ADD SWAP1 DUP2 PUSH2 0x598 SWAP2 SWAP1 PUSH2 0x1064 JUMP JUMPDEST POP PUSH1 0x20 DUP3 ADD MLOAD DUP2 PUSH1 0x1 ADD PUSH1 0x0 PUSH2 0x100 EXP DUP2 SLOAD DUP2 PUSH1 0xFF MUL NOT AND SWAP1 DUP4 PUSH1 0xD DUP2 GT ISZERO PUSH2 0x5C4 JUMPI PUSH2 0x5C3 PUSH2 0x708 JUMP JUMPDEST JUMPDEST MUL OR SWAP1 SSTORE POP PUSH1 0x40 DUP3 ADD MLOAD DUP2 PUSH1 0x1 ADD PUSH1 0x1 PUSH2 0x100 EXP DUP2 SLOAD DUP2 PUSH1 0xFF MUL NOT AND SWAP1 DUP4 PUSH1 0x4 DUP2 GT ISZERO PUSH2 0x5F4 JUMPI PUSH2 0x5F3 PUSH2 0x708 JUMP JUMPDEST JUMPDEST MUL OR SWAP1 SSTORE POP POP POP POP POP POP POP JUMP JUMPDEST PUSH1 0x0 PUSH1 0x40 MLOAD SWAP1 POP SWAP1 JUMP JUMPDEST PUSH1 0x0 DUP1 REVERT JUMPDEST PUSH1 0x0 DUP1 REVERT JUMPDEST PUSH1 0x0 DUP2 SWAP1 POP SWAP2 SWAP1 POP JUMP JUMPDEST PUSH2 0x628 DUP2 PUSH2 0x615 JUMP JUMPDEST DUP2 EQ PUSH2 0x633 JUMPI PUSH1 0x0 DUP1 REVERT JUMPDEST POP JUMP JUMPDEST PUSH1 0x0 DUP2 CALLDATALOAD SWAP1 POP PUSH2 0x645 DUP2 PUSH2 0x61F JUMP JUMPDEST SWAP3 SWAP2 POP POP JUMP JUMPDEST PUSH1 0x0 PUSH1 0x20 DUP3 DUP5 SUB SLT ISZERO PUSH2 0x661 JUMPI PUSH2 0x660 PUSH2 0x60B JUMP JUMPDEST JUMPDEST PUSH1 0x0 PUSH2 0x66F DUP5 DUP3 DUP6 ADD PUSH2 0x636 JUMP JUMPDEST SWAP2 POP POP SWAP3 SWAP2 POP POP JUMP JUMPDEST PUSH1 0x0 DUP2 MLOAD SWAP1 POP SWAP2 SWAP1 POP JUMP JUMPDEST PUSH1 0x0 DUP3 DUP3 MSTORE PUSH1 0x20 DUP3 ADD SWAP1 POP SWAP3 SWAP2 POP POP JUMP JUMPDEST PUSH1 0x0 JUMPDEST DUP4 DUP2 LT ISZERO PUSH2 0x6B2 JUMPI DUP1 DUP3 ADD MLOAD DUP2 DUP5 ADD MSTORE PUSH1 0x20 DUP2 ADD SWAP1 POP PUSH2 0x697 JUMP JUMPDEST PUSH1 0x0 DUP5 DUP5 ADD MSTORE POP POP POP POP JUMP JUMPDEST PUSH1 0x0 PUSH1 0x1F NOT PUSH1 0x1F DUP4 ADD AND SWAP1 POP SWAP2 SWAP1 POP JUMP JUMPDEST PUSH1 0x0 PUSH2 0x6DA DUP3 PUSH2 0x678 JUMP JUMPDEST PUSH2 0x6E4 DUP2 DUP6 PUSH2 0x683 JUMP JUMPDEST SWAP4 POP PUSH2 0x6F4 DUP2 DUP6 PUSH1 0x20 DUP7 ADD PUSH2 0x694 JUMP JUMPDEST PUSH2 0x6FD DUP2 PUSH2 0x6BE JUMP JUMPDEST DUP5 ADD SWAP2 POP POP SWAP3 SWAP2 POP POP JUMP JUMPDEST PUSH32 0x4E487B7100000000000000000000000000000000000000000000000000000000 PUSH1 0x0 MSTORE PUSH1 0x21 PUSH1 0x4 MSTORE PUSH1 0x24 PUSH1 0x0 REVERT JUMPDEST PUSH1 0xE DUP2 LT PUSH2 0x748 JUMPI PUSH2 0x747 PUSH2 0x708 JUMP JUMPDEST JUMPDEST POP JUMP JUMPDEST PUSH1 0x0 DUP2 SWAP1 POP PUSH2 0x759 DUP3 PUSH2 0x737 JUMP JUMPDEST SWAP2 SWAP1 POP JUMP JUMPDEST PUSH1 0x0 PUSH2 0x769 DUP3 PUSH2 0x74B JUMP JUMPDEST SWAP1 POP SWAP2 SWAP1 POP JUMP JUMPDEST PUSH2 0x779 DUP2 PUSH2 0x75E JUMP JUMPDEST DUP3 MSTORE POP POP JUMP JUMPDEST PUSH1 0x5 DUP2 LT PUSH2 0x790 JUMPI PUSH2 0x78F PUSH2 0x708 JUMP JUMPDEST JUMPDEST POP JUMP JUMPDEST PUSH1 0x0 DUP2 SWAP1 POP PUSH2 0x7A1 DUP3 PUSH2 0x77F JUMP JUMPDEST SWAP2 SWAP1 POP JUMP JUMPDEST PUSH1 0x0 PUSH2 0x7B1 DUP3 PUSH2 0x793 JUMP JUMPDEST SWAP1 POP SWAP2 SWAP1 POP JUMP JUMPDEST PUSH2 0x7C1 DUP2 PUSH2 0x7A6 JUMP JUMPDEST DUP3 MSTORE POP POP JUMP JUMPDEST PUSH1 0x0 PUSH1 0x60 DUP3 ADD SWAP1 POP DUP2 DUP2 SUB PUSH1 0x0 DUP4 ADD MSTORE PUSH2 0x7E1 DUP2 DUP7 PUSH2 0x6CF JUMP JUMPDEST SWAP1 POP PUSH2 0x7F0 PUSH1 0x20 DUP4 ADD DUP6 PUSH2 0x770 JUMP JUMPDEST PUSH2 0x7FD PUSH1 0x40 DUP4 ADD DUP5 PUSH2 0x7B8 JUMP JUMPDEST SWAP5 SWAP4 POP POP POP POP JUMP JUMPDEST PUSH1 0x0 DUP1 REVERT JUMPDEST PUSH32 0x4E487B7100000000000000000000000000000000000000000000000000000000 PUSH1 0x0 MSTORE PUSH1 0x41 PUSH1 0x4 MSTORE PUSH1 0x24 PUSH1 0x0 REVERT JUMPDEST PUSH2 0x842 DUP3 PUSH2 0x6BE JUMP JUMPDEST DUP2 ADD DUP2 DUP2 LT PUSH8 0xFFFFFFFFFFFFFFFF DUP3 GT OR ISZERO PUSH2 0x861 JUMPI PUSH2 0x860 PUSH2 0x80A JUMP JUMPDEST JUMPDEST DUP1 PUSH1 0x40 MSTORE POP POP POP JUMP JUMPDEST PUSH1 0x0 PUSH2 0x874 PUSH2 0x601 JUMP JUMPDEST SWAP1 POP PUSH2 0x880 DUP3 DUP3 PUSH2 0x839 JUMP JUMPDEST SWAP2 SWAP1 POP JUMP JUMPDEST PUSH1 0x0 DUP1 REVERT JUMPDEST PUSH1 0x0 DUP1 REVERT JUMPDEST PUSH1 0x0 DUP1 REVERT JUMPDEST PUSH1 0x0 PUSH8 0xFFFFFFFFFFFFFFFF DUP3 GT ISZERO PUSH2 0x8AF JUMPI PUSH2 0x8AE PUSH2 0x80A JUMP JUMPDEST JUMPDEST PUSH2 0x8B8 DUP3 PUSH2 0x6BE JUMP JUMPDEST SWAP1 POP PUSH1 0x20 DUP2 ADD SWAP1 POP SWAP2 SWAP1 POP JUMP JUMPDEST DUP3 DUP2 DUP4 CALLDATACOPY PUSH1 0x0 DUP4 DUP4 ADD MSTORE POP POP POP JUMP JUMPDEST PUSH1 0x0 PUSH2 0x8E7 PUSH2 0x8E2 DUP5 PUSH2 0x894 JUMP JUMPDEST PUSH2 0x86A JUMP JUMPDEST SWAP1 POP DUP3 DUP2 MSTORE PUSH1 0x20 DUP2 ADD DUP5 DUP5 DUP5 ADD GT ISZERO PUSH2 0x903 JUMPI PUSH2 0x902 PUSH2 0x88F JUMP JUMPDEST JUMPDEST PUSH2 0x90E DUP5 DUP3 DUP6 PUSH2 0x8C5 JUMP JUMPDEST POP SWAP4 SWAP3 POP POP POP JUMP JUMPDEST PUSH1 0x0 DUP3 PUSH1 0x1F DUP4 ADD SLT PUSH2 0x92B JUMPI PUSH2 0x92A PUSH2 0x88A JUMP JUMPDEST JUMPDEST DUP2 CALLDATALOAD PUSH2 0x93B DUP5 DUP3 PUSH1 0x20 DUP7 ADD PUSH2 0x8D4 JUMP JUMPDEST SWAP2 POP POP SWAP3 SWAP2 POP POP JUMP JUMPDEST PUSH1 0xE DUP2 LT PUSH2 0x951 JUMPI PUSH1 0x0 DUP1 REVERT JUMPDEST POP JUMP JUMPDEST PUSH1 0x0 DUP2 CALLDATALOAD SWAP1 POP PUSH2 0x963 DUP2 PUSH2 0x944 JUMP JUMPDEST SWAP3 SWAP2 POP POP JUMP JUMPDEST PUSH1 0x5 DUP2 LT PUSH2 0x976 JUMPI PUSH1 0x0 DUP1 REVERT JUMPDEST POP JUMP JUMPDEST PUSH1 0x0 DUP2 CALLDATALOAD SWAP1 POP PUSH2 0x988 DUP2 PUSH2 0x969 JUMP JUMPDEST SWAP3 SWAP2 POP POP JUMP JUMPDEST PUSH1 0x0 PUSH1 0x60 DUP3 DUP5 SUB SLT ISZERO PUSH2 0x9A4 JUMPI PUSH2 0x9A3 PUSH2 0x805 JUMP JUMPDEST JUMPDEST PUSH2 0x9AE PUSH1 0x60 PUSH2 0x86A JUMP JUMPDEST SWAP1 POP PUSH1 0x0 DUP3 ADD CALLDATALOAD PUSH8 0xFFFFFFFFFFFFFFFF DUP2 GT ISZERO PUSH2 0x9CE JUMPI PUSH2 0x9CD PUSH2 0x885 JUMP JUMPDEST JUMPDEST PUSH2 0x9DA DUP5 DUP3 DUP6 ADD PUSH2 0x916 JUMP JUMPDEST PUSH1 0x0 DUP4 ADD MSTORE POP PUSH1 0x20 PUSH2 0x9EE DUP5 DUP3 DUP6 ADD PUSH2 0x954 JUMP JUMPDEST PUSH1 0x20 DUP4 ADD MSTORE POP PUSH1 0x40 PUSH2 0xA02 DUP5 DUP3 DUP6 ADD PUSH2 0x979 JUMP JUMPDEST PUSH1 0x40 DUP4 ADD MSTORE POP SWAP3 SWAP2 POP POP JUMP JUMPDEST PUSH1 0x0 DUP1 PUSH1 0x40 DUP4 DUP6 SUB SLT ISZERO PUSH2 0xA25 JUMPI PUSH2 0xA24 PUSH2 0x60B JUMP JUMPDEST JUMPDEST PUSH1 0x0 DUP4 ADD CALLDATALOAD PUSH8 0xFFFFFFFFFFFFFFFF DUP2 GT ISZERO PUSH2 0xA43 JUMPI PUSH2 0xA42 PUSH2 0x610 JUMP JUMPDEST JUMPDEST PUSH2 0xA4F DUP6 DUP3 DUP7 ADD PUSH2 0x98E JUMP JUMPDEST SWAP3 POP POP PUSH1 0x20 DUP4 ADD CALLDATALOAD PUSH8 0xFFFFFFFFFFFFFFFF DUP2 GT ISZERO PUSH2 0xA70 JUMPI PUSH2 0xA6F PUSH2 0x610 JUMP JUMPDEST JUMPDEST PUSH2 0xA7C DUP6 DUP3 DUP7 ADD PUSH2 0x98E JUMP JUMPDEST SWAP2 POP POP SWAP3 POP SWAP3 SWAP1 POP JUMP JUMPDEST PUSH1 0x0 DUP2 MLOAD SWAP1 POP SWAP2 SWAP1 POP JUMP JUMPDEST PUSH1 0x0 DUP3 DUP3 MSTORE PUSH1 0x20 DUP3 ADD SWAP1 POP SWAP3 SWAP2 POP POP JUMP JUMPDEST PUSH1 0x0 DUP2 SWAP1 POP PUSH1 0x20 DUP3 ADD SWAP1 POP SWAP2 SWAP1 POP JUMP JUMPDEST PUSH1 0x0 DUP3 DUP3 MSTORE PUSH1 0x20 DUP3 ADD SWAP1 POP SWAP3 SWAP2 POP POP JUMP JUMPDEST PUSH1 0x0 PUSH2 0xACE DUP3 PUSH2 0x678 JUMP JUMPDEST PUSH2 0xAD8 DUP2 DUP6 PUSH2 0xAB2 JUMP JUMPDEST SWAP4 POP PUSH2 0xAE8 DUP2 DUP6 PUSH1 0x20 DUP7 ADD PUSH2 0x694 JUMP JUMPDEST PUSH2 0xAF1 DUP2 PUSH2 0x6BE JUMP JUMPDEST DUP5 ADD SWAP2 POP POP SWAP3 SWAP2 POP POP JUMP JUMPDEST PUSH2 0xB05 DUP2 PUSH2 0x75E JUMP JUMPDEST DUP3 MSTORE POP POP JUMP JUMPDEST PUSH2 0xB14 DUP2 PUSH2 0x7A6 JUMP JUMPDEST DUP3 MSTORE POP POP JUMP JUMPDEST PUSH1 0x0 PUSH1 0x60 DUP4 ADD PUSH1 0x0 DUP4 ADD MLOAD DUP5 DUP3 SUB PUSH1 0x0 DUP7 ADD MSTORE PUSH2 0xB37 DUP3 DUP3 PUSH2 0xAC3 JUMP JUMPDEST SWAP2 POP POP PUSH1 0x20 DUP4 ADD MLOAD PUSH2 0xB4C PUSH1 0x20 DUP7 ADD DUP3 PUSH2 0xAFC JUMP JUMPDEST POP PUSH1 0x40 DUP4 ADD MLOAD PUSH2 0xB5F PUSH1 0x40 DUP7 ADD DUP3 PUSH2 0xB0B JUMP JUMPDEST POP DUP1 SWAP2 POP POP SWAP3 SWAP2 POP POP JUMP JUMPDEST PUSH1 0x0 PUSH2 0xB76 DUP4 DUP4 PUSH2 0xB1A JUMP JUMPDEST SWAP1 POP SWAP3 SWAP2 POP POP JUMP JUMPDEST PUSH1 0x0 PUSH1 0x20 DUP3 ADD SWAP1 POP SWAP2 SWAP1 POP JUMP JUMPDEST PUSH1 0x0 PUSH2 0xB96 DUP3 PUSH2 0xA86 JUMP JUMPDEST PUSH2 0xBA0 DUP2 DUP6 PUSH2 0xA91 JUMP JUMPDEST SWAP4 POP DUP4 PUSH1 0x20 DUP3 MUL DUP6 ADD PUSH2 0xBB2 DUP6 PUSH2 0xAA2 JUMP JUMPDEST DUP1 PUSH1 0x0 JUMPDEST DUP6 DUP2 LT ISZERO PUSH2 0xBEE JUMPI DUP5 DUP5 SUB DUP10 MSTORE DUP2 MLOAD PUSH2 0xBCF DUP6 DUP3 PUSH2 0xB6A JUMP JUMPDEST SWAP5 POP PUSH2 0xBDA DUP4 PUSH2 0xB7E JUMP JUMPDEST SWAP3 POP PUSH1 0x20 DUP11 ADD SWAP10 POP POP PUSH1 0x1 DUP2 ADD SWAP1 POP PUSH2 0xBB6 JUMP JUMPDEST POP DUP3 SWAP8 POP DUP8 SWAP6 POP POP POP POP POP POP SWAP3 SWAP2 POP POP JUMP JUMPDEST PUSH1 0x0 PUSH1 0x20 DUP3 ADD SWAP1 POP DUP2 DUP2 SUB PUSH1 0x0 DUP4 ADD MSTORE PUSH2 0xC1A DUP2 DUP5 PUSH2 0xB8B JUMP JUMPDEST SWAP1 POP SWAP3 SWAP2 POP POP JUMP JUMPDEST PUSH2 0xC2B DUP2 PUSH2 0x615 JUMP JUMPDEST DUP3 MSTORE POP POP JUMP JUMPDEST PUSH1 0x0 PUSH1 0x20 DUP3 ADD SWAP1 POP PUSH2 0xC46 PUSH1 0x0 DUP4 ADD DUP5 PUSH2 0xC22 JUMP JUMPDEST SWAP3 SWAP2 POP POP JUMP JUMPDEST PUSH1 0x0 DUP1 PUSH1 0x0 PUSH1 0x60 DUP5 DUP7 SUB SLT ISZERO PUSH2 0xC65 JUMPI PUSH2 0xC64 PUSH2 0x60B JUMP JUMPDEST JUMPDEST PUSH1 0x0 DUP5 ADD CALLDATALOAD PUSH8 0xFFFFFFFFFFFFFFFF DUP2 GT ISZERO PUSH2 0xC83 JUMPI PUSH2 0xC82 PUSH2 0x610 JUMP JUMPDEST JUMPDEST PUSH2 0xC8F DUP7 DUP3 DUP8 ADD PUSH2 0x916 JUMP JUMPDEST SWAP4 POP POP PUSH1 0x20 PUSH2 0xCA0 DUP7 DUP3 DUP8 ADD PUSH2 0x954 JUMP JUMPDEST SWAP3 POP POP PUSH1 0x40 PUSH2 0xCB1 DUP7 DUP3 DUP8 ADD PUSH2 0x979 JUMP JUMPDEST SWAP2 POP POP SWAP3 POP SWAP3 POP SWAP3 JUMP JUMPDEST PUSH32 0x4E487B7100000000000000000000000000000000000000000000000000000000 PUSH1 0x0 MSTORE PUSH1 0x22 PUSH1 0x4 MSTORE PUSH1 0x24 PUSH1 0x0 REVERT JUMPDEST PUSH1 0x0 PUSH1 0x2 DUP3 DIV SWAP1 POP PUSH1 0x1 DUP3 AND DUP1 PUSH2 0xD02 JUMPI PUSH1 0x7F DUP3 AND SWAP2 POP JUMPDEST PUSH1 0x20 DUP3 LT DUP2 SUB PUSH2 0xD15 JUMPI PUSH2 0xD14 PUSH2 0xCBB JUMP JUMPDEST JUMPDEST POP SWAP2 SWAP1 POP JUMP JUMPDEST PUSH32 0x506C656173652073656E64206174206C6561737420302E303520455448000000 PUSH1 0x0 DUP3 ADD MSTORE POP JUMP JUMPDEST PUSH1 0x0 PUSH2 0xD51 PUSH1 0x1D DUP4 PUSH2 0x683 JUMP JUMPDEST SWAP2 POP PUSH2 0xD5C DUP3 PUSH2 0xD1B JUMP JUMPDEST PUSH1 0x20 DUP3 ADD SWAP1 POP SWAP2 SWAP1 POP JUMP JUMPDEST PUSH1 0x0 PUSH1 0x20 DUP3 ADD SWAP1 POP DUP2 DUP2 SUB PUSH1 0x0 DUP4 ADD MSTORE PUSH2 0xD80 DUP2 PUSH2 0xD44 JUMP JUMPDEST SWAP1 POP SWAP2 SWAP1 POP JUMP JUMPDEST PUSH1 0x0 PUSH1 0xFF DUP3 AND SWAP1 POP SWAP2 SWAP1 POP JUMP JUMPDEST PUSH32 0x4E487B7100000000000000000000000000000000000000000000000000000000 PUSH1 0x0 MSTORE PUSH1 0x11 PUSH1 0x4 MSTORE PUSH1 0x24 PUSH1 0x0 REVERT JUMPDEST PUSH1 0x0 PUSH2 0xDCE DUP3 PUSH2 0xD87 JUMP JUMPDEST SWAP2 POP PUSH2 0xDD9 DUP4 PUSH2 0xD87 JUMP JUMPDEST SWAP3 POP DUP3 DUP3 ADD SWAP1 POP PUSH1 0xFF DUP2 GT ISZERO PUSH2 0xDF2 JUMPI PUSH2 0xDF1 PUSH2 0xD94 JUMP JUMPDEST JUMPDEST SWAP3 SWAP2 POP POP JUMP JUMPDEST PUSH32 0x4E487B7100000000000000000000000000000000000000000000000000000000 PUSH1 0x0 MSTORE PUSH1 0x12 PUSH1 0x4 MSTORE PUSH1 0x24 PUSH1 0x0 REVERT JUMPDEST PUSH1 0x0 PUSH2 0xE32 DUP3 PUSH2 0xD87 JUMP JUMPDEST SWAP2 POP PUSH2 0xE3D DUP4 PUSH2 0xD87 JUMP JUMPDEST SWAP3 POP DUP3 PUSH2 0xE4D JUMPI PUSH2 0xE4C PUSH2 0xDF8 JUMP JUMPDEST JUMPDEST DUP3 DUP3 MOD SWAP1 POP SWAP3 SWAP2 POP POP JUMP JUMPDEST PUSH1 0x0 DUP2 SWAP1 POP SWAP3 SWAP2 POP POP JUMP JUMPDEST PUSH1 0x0 PUSH2 0xE6E DUP3 PUSH2 0x678 JUMP JUMPDEST PUSH2 0xE78 DUP2 DUP6 PUSH2 0xE58 JUMP JUMPDEST SWAP4 POP PUSH2 0xE88 DUP2 DUP6 PUSH1 0x20 DUP7 ADD PUSH2 0x694 JUMP JUMPDEST DUP1 DUP5 ADD SWAP2 POP POP SWAP3 SWAP2 POP POP JUMP JUMPDEST PUSH1 0x0 PUSH2 0xEA0 DUP3 DUP6 PUSH2 0xE63 JUMP JUMPDEST SWAP2 POP PUSH2 0xEAC DUP3 DUP5 PUSH2 0xE63 JUMP JUMPDEST SWAP2 POP DUP2 SWAP1 POP SWAP4 SWAP3 POP POP POP JUMP JUMPDEST PUSH1 0x0 DUP2 SWAP1 POP DUP2 PUSH1 0x0 MSTORE PUSH1 0x20 PUSH1 0x0 KECCAK256 SWAP1 POP SWAP2 SWAP1 POP JUMP JUMPDEST PUSH1 0x0 PUSH1 0x20 PUSH1 0x1F DUP4 ADD DIV SWAP1 POP SWAP2 SWAP1 POP JUMP JUMPDEST PUSH1 0x0 DUP3 DUP3 SHL SWAP1 POP SWAP3 SWAP2 POP POP JUMP JUMPDEST PUSH1 0x0 PUSH1 0x8 DUP4 MUL PUSH2 0xF1A PUSH32 0xFFFFFFFFFFFFFFFFFFFFFFFFFFFFFFFFFFFFFFFFFFFFFFFFFFFFFFFFFFFFFFFF DUP3 PUSH2 0xEDD JUMP JUMPDEST PUSH2 0xF24 DUP7 DUP4 PUSH2 0xEDD JUMP JUMPDEST SWAP6 POP DUP1 NOT DUP5 AND SWAP4 POP DUP1 DUP7 AND DUP5 OR SWAP3 POP POP POP SWAP4 SWAP3 POP POP POP JUMP JUMPDEST PUSH1 0x0 DUP2 SWAP1 POP SWAP2 SWAP1 POP JUMP JUMPDEST PUSH1 0x0 PUSH2 0xF61 PUSH2 0xF5C PUSH2 0xF57 DUP5 PUSH2 0x615 JUMP JUMPDEST PUSH2 0xF3C JUMP JUMPDEST PUSH2 0x615 JUMP JUMPDEST SWAP1 POP SWAP2 SWAP1 POP JUMP JUMPDEST PUSH1 0x0 DUP2 SWAP1 POP SWAP2 SWAP1 POP JUMP JUMPDEST PUSH2 0xF7B DUP4 PUSH2 0xF46 JUMP JUMPDEST PUSH2 0xF8F PUSH2 0xF87 DUP3 PUSH2 0xF68 JUMP JUMPDEST DUP5 DUP5 SLOAD PUSH2 0xEEA JUMP JUMPDEST DUP3 SSTORE POP POP POP POP JUMP JUMPDEST PUSH1 0x0 SWAP1 JUMP JUMPDEST PUSH2 0xFA4 PUSH2 0xF97 JUMP JUMPDEST PUSH2 0xFAF DUP2 DUP5 DUP5 PUSH2 0xF72 JUMP JUMPDEST POP POP POP JUMP JUMPDEST JUMPDEST DUP2 DUP2 LT ISZERO PUSH2 0xFD3 JUMPI PUSH2 0xFC8 PUSH1 0x0 DUP3 PUSH2 0xF9C JUMP JUMPDEST PUSH1 0x1 DUP2 ADD SWAP1 POP PUSH2 0xFB5 JUMP JUMPDEST POP POP JUMP JUMPDEST PUSH1 0x1F DUP3 GT ISZERO PUSH2 0x1018 JUMPI PUSH2 0xFE9 DUP2 PUSH2 0xEB8 JUMP JUMPDEST PUSH2 0xFF2 DUP5 PUSH2 0xECD JUMP JUMPDEST DUP2 ADD PUSH1 0x20 DUP6 LT ISZERO PUSH2 0x1001 JUMPI DUP2 SWAP1 POP JUMPDEST PUSH2 0x1015 PUSH2 0x100D DUP6 PUSH2 0xECD JUMP JUMPDEST DUP4 ADD DUP3 PUSH2 0xFB4 JUMP JUMPDEST POP POP JUMPDEST POP POP POP JUMP JUMPDEST PUSH1 0x0 DUP3 DUP3 SHR SWAP1 POP SWAP3 SWAP2 POP POP JUMP JUMPDEST PUSH1 0x0 PUSH2 0x103B PUSH1 0x0 NOT DUP5 PUSH1 0x8 MUL PUSH2 0x101D JUMP JUMPDEST NOT DUP1 DUP4 AND SWAP2 POP POP SWAP3 SWAP2 POP POP JUMP JUMPDEST PUSH1 0x0 PUSH2 0x1054 DUP4 DUP4 PUSH2 0x102A JUMP JUMPDEST SWAP2 POP DUP3 PUSH1 0x2 MUL DUP3 OR SWAP1 POP SWAP3 SWAP2 POP POP JUMP JUMPDEST PUSH2 0x106D DUP3 PUSH2 0x678 JUMP JUMPDEST PUSH8 0xFFFFFFFFFFFFFFFF DUP2 GT ISZERO PUSH2 0x1086 JUMPI PUSH2 0x1085 PUSH2 0x80A JUMP JUMPDEST JUMPDEST PUSH2 0x1090 DUP3 SLOAD PUSH2 0xCEA JUMP JUMPDEST PUSH2 0x109B DUP3 DUP3 DUP6 PUSH2 0xFD7 JUMP JUMPDEST PUSH1 0x0 PUSH1 0x20 SWAP1 POP PUSH1 0x1F DUP4 GT PUSH1 0x1 DUP2 EQ PUSH2 0x10CE JUMPI PUSH1 0x0 DUP5 ISZERO PUSH2 0x10BC JUMPI DUP3 DUP8 ADD MLOAD SWAP1 POP JUMPDEST PUSH2 0x10C6 DUP6 DUP3 PUSH2 0x1048 JUMP JUMPDEST DUP7 SSTORE POP PUSH2 0x112E JUMP JUMPDEST PUSH1 0x1F NOT DUP5 AND PUSH2 0x10DC DUP7 PUSH2 0xEB8 JUMP JUMPDEST PUSH1 0x0 JUMPDEST DUP3 DUP2 LT ISZERO PUSH2 0x1104 JUMPI DUP5 DUP10 ADD MLOAD DUP3 SSTORE PUSH1 0x1 DUP3 ADD SWAP2 POP PUSH1 0x20 DUP6 ADD SWAP5 POP PUSH1 0x20 DUP2 ADD SWAP1 POP PUSH2 0x10DF JUMP JUMPDEST DUP7 DUP4 LT ISZERO PUSH2 0x1121 JUMPI DUP5 DUP10 ADD MLOAD PUSH2 0x111D PUSH1 0x1F DUP10 AND DUP3 PUSH2 0x102A JUMP JUMPDEST DUP4 SSTORE POP JUMPDEST PUSH1 0x1 PUSH1 0x2 DUP9 MUL ADD DUP9 SSTORE POP POP POP JUMPDEST POP POP POP POP POP POP JUMP INVALID LOG2 PUSH5 0x6970667358 0x22 SLT KECCAK256 0xAB SWAP6 SWAP3 DUP8 0x4A SWAP7 0x2A MULMOD 0x25 PUSH13 0x944462624BBF124E950A6657A1 EQ 0x29 CALLDATALOAD GASLIMIT PUSH8 0xBBBFB1CB64736F6C PUSH4 0x43000811 STOP CALLER "},"methodIdentifiers":{"createHamster(string,uint8,uint8)":"b3e6f64a","getCount()":"a87d942c","getHamsters()":"68204c2d","hamsters(uint256)":"5660f5f4","multiplyHamster((string,uint8,uint8),(string,uint8,uint8))":"5c929f2f"}}}}}