{
  "_format": "hh-sol-artifact-1",
  "contractName": "HamsterNursery",
  "sourceName": "contracts/HamsterNursery.sol",
  "abi": [
    {
      "inputs": [],
      "stateMutability": "nonpayable",
      "type": "constructor"
    },
    {
      "inputs": [
        {
          "internalType": "string",
          "name": "_name",
          "type": "string"
        },
        {
          "internalType": "enum HamsterNursery.ColorType",
          "name": "_color",
          "type": "uint8"
        },
        {
          "internalType": "enum HamsterNursery.PatternType",
          "name": "_pattern",
          "type": "uint8"
        }
      ],
      "name": "createHamster",
      "outputs": [],
      "stateMutability": "nonpayable",
      "type": "function"
    },
    {
      "inputs": [],
      "name": "getCount",
      "outputs": [
        {
          "internalType": "uint256",
          "name": "",
          "type": "uint256"
        }
      ],
      "stateMutability": "view",
      "type": "function"
    },
    {
      "inputs": [],
      "name": "getHamsters",
      "outputs": [
        {
          "components": [
            {
              "internalType": "string",
              "name": "name",
              "type": "string"
            },
            {
              "internalType": "enum HamsterNursery.ColorType",
              "name": "color",
              "type": "uint8"
            },
            {
              "internalType": "enum HamsterNursery.PatternType",
              "name": "pattern",
              "type": "uint8"
            }
          ],
          "internalType": "struct HamsterNursery.Hamster[]",
          "name": "",
          "type": "tuple[]"
        }
      ],
      "stateMutability": "view",
      "type": "function"
    },
    {
      "inputs": [
        {
          "internalType": "uint256",
          "name": "",
          "type": "uint256"
        }
      ],
      "name": "hamsters",
      "outputs": [
        {
          "internalType": "string",
          "name": "name",
          "type": "string"
        },
        {
          "internalType": "enum HamsterNursery.ColorType",
          "name": "color",
          "type": "uint8"
        },
        {
          "internalType": "enum HamsterNursery.PatternType",
          "name": "pattern",
          "type": "uint8"
        }
      ],
      "stateMutability": "view",
      "type": "function"
    },
    {
      "inputs": [
        {
          "components": [
            {
              "internalType": "string",
              "name": "name",
              "type": "string"
            },
            {
              "internalType": "enum HamsterNursery.ColorType",
              "name": "color",
              "type": "uint8"
            },
            {
              "internalType": "enum HamsterNursery.PatternType",
              "name": "pattern",
              "type": "uint8"
            }
          ],
          "internalType": "struct HamsterNursery.Hamster",
          "name": "hamster1",
          "type": "tuple"
        },
        {
          "components": [
            {
              "internalType": "string",
              "name": "name",
              "type": "string"
            },
            {
              "internalType": "enum HamsterNursery.ColorType",
              "name": "color",
              "type": "uint8"
            },
            {
              "internalType": "enum HamsterNursery.PatternType",
              "name": "pattern",
              "type": "uint8"
            }
          ],
          "internalType": "struct HamsterNursery.Hamster",
          "name": "hamster2",
          "type": "tuple"
        }
      ],
      "name": "multiplyHamster",
      "outputs": [],
      "stateMutability": "payable",
      "type": "function"
    }
  ],
  "bytecode": "0x60806040523480156200001157600080fd5b506200005c6040518060400160405280600781526020017f427562626c65730000000000000000000000000000000000000000000000000081525060026000620000ac60201b60201c565b620000a66040518060400160405280600681526020017f466c75666679000000000000000000000000000000000000000000000000000081525060066004620000ac60201b60201c565b62000537565b6000604051806060016040528085815260200184600d811115620000d557620000d4620001a7565b5b8152602001836004811115620000f057620000ef620001a7565b5b81525090506000819080600181540180825580915050600190039060005260206000209060020201600090919091909150600082015181600001908162000138919062000450565b5060208201518160010160006101000a81548160ff0219169083600d811115620001675762000166620001a7565b5b021790555060408201518160010160016101000a81548160ff021916908360048111156200019a5762000199620001a7565b5b0217905550505050505050565b7f4e487b7100000000000000000000000000000000000000000000000000000000600052602160045260246000fd5b600081519050919050565b7f4e487b7100000000000000000000000000000000000000000000000000000000600052604160045260246000fd5b7f4e487b7100000000000000000000000000000000000000000000000000000000600052602260045260246000fd5b600060028204905060018216806200025857607f821691505b6020821081036200026e576200026d62000210565b5b50919050565b60008190508160005260206000209050919050565b60006020601f8301049050919050565b600082821b905092915050565b600060088302620002d87fffffffffffffffffffffffffffffffffffffffffffffffffffffffffffffffff8262000299565b620002e4868362000299565b95508019841693508086168417925050509392505050565b6000819050919050565b6000819050919050565b6000620003316200032b6200032584620002fc565b62000306565b620002fc565b9050919050565b6000819050919050565b6200034d8362000310565b620003656200035c8262000338565b848454620002a6565b825550505050565b600090565b6200037c6200036d565b6200038981848462000342565b505050565b5b81811015620003b157620003a560008262000372565b6001810190506200038f565b5050565b601f8211156200040057620003ca8162000274565b620003d58462000289565b81016020851015620003e5578190505b620003fd620003f48562000289565b8301826200038e565b50505b505050565b600082821c905092915050565b6000620004256000198460080262000405565b1980831691505092915050565b600062000440838362000412565b9150826002028217905092915050565b6200045b82620001d6565b67ffffffffffffffff811115620004775762000476620001e1565b5b6200048382546200023f565b62000490828285620003b5565b600060209050601f831160018114620004c85760008415620004b3578287015190505b620004bf858262000432565b8655506200052f565b601f198416620004d88662000274565b60005b828110156200050257848901518255600182019150602085019450602081019050620004db565b868310156200052257848901516200051e601f89168262000412565b8355505b6001600288020188555050505b505050505050565b61116c80620005476000396000f3fe60806040526004361061004a5760003560e01c80635660f5f41461004f5780635c929f2f1461008e57806368204c2d146100aa578063a87d942c146100d5578063b3e6f64a14610100575b600080fd5b34801561005b57600080fd5b506100766004803603810190610071919061064b565b610129565b604051610085939291906107c7565b60405180910390f35b6100a860048036038101906100a39190610a0e565b610205565b005b3480156100b657600080fd5b506100bf6103a1565b6040516100cc9190610c00565b60405180910390f35b3480156100e157600080fd5b506100ea610508565b6040516100f79190610c31565b60405180910390f35b34801561010c57600080fd5b5061012760048036038101906101229190610c4c565b610514565b005b6000818154811061013957600080fd5b906000526020600020906002020160009150905080600001805461015c90610cea565b80601f016020809104026020016040519081016040528092919081815260200182805461018890610cea565b80156101d55780601f106101aa576101008083540402835291602001916101d5565b820191906000526020600020905b8154815290600101906020018083116101b857829003601f168201915b5050505050908060010160009054906101000a900460ff16908060010160019054906101000a900460ff16905083565b66b1a2bc2ec5000034101561024f576040517f08c379a000000000000000000000000000000000000000000000000000000000815260040161024690610d67565b60405180910390fd5b60008260200151600d81111561026857610267610708565b5b905060008260200151600d81111561028357610282610708565b5b905060006001600d8081111561029c5761029b610708565b5b6102a69190610dc3565b905060008183856102b79190610dc3565b6102c19190610e27565b90506000866040015160048111156102dc576102db610708565b5b90506000866040015160048111156102f7576102f6610708565b5b9050600060016004808111156103105761030f610708565b5b61031a9190610dc3565b9050600081838561032b9190610dc3565b6103359190610e27565b90506103958a600001518a60000151604051602001610355929190610e94565b6040516020818303038152906040528660ff16600d81111561037a57610379610708565b5b8360ff1660048111156103905761038f610708565b5b610514565b50505050505050505050565b60606000805480602002602001604051908101604052809291908181526020016000905b828210156104ff57838290600052602060002090600202016040518060600160405290816000820180546103f890610cea565b80601f016020809104026020016040519081016040528092919081815260200182805461042490610cea565b80156104715780601f1061044657610100808354040283529160200191610471565b820191906000526020600020905b81548152906001019060200180831161045457829003601f168201915b505050505081526020016001820160009054906101000a900460ff16600d81111561049f5761049e610708565b5b600d8111156104b1576104b0610708565b5b81526020016001820160019054906101000a900460ff1660048111156104da576104d9610708565b5b60048111156104ec576104eb610708565b5b81525050815260200190600101906103c5565b50505050905090565b60008080549050905090565b6000604051806060016040528085815260200184600d81111561053a57610539610708565b5b815260200183600481111561055257610551610708565b5b8152509050600081908060018154018082558091505060019003906000526020600020906002020160009091909190915060008201518160000190816105989190611064565b5060208201518160010160006101000a81548160ff0219169083600d8111156105c4576105c3610708565b5b021790555060408201518160010160016101000a81548160ff021916908360048111156105f4576105f3610708565b5b0217905550505050505050565b6000604051905090565b600080fd5b600080fd5b6000819050919050565b61062881610615565b811461063357600080fd5b50565b6000813590506106458161061f565b92915050565b6000602082840312156106615761066061060b565b5b600061066f84828501610636565b91505092915050565b600081519050919050565b600082825260208201905092915050565b60005b838110156106b2578082015181840152602081019050610697565b60008484015250505050565b6000601f19601f8301169050919050565b60006106da82610678565b6106e48185610683565b93506106f4818560208601610694565b6106fd816106be565b840191505092915050565b7f4e487b7100000000000000000000000000000000000000000000000000000000600052602160045260246000fd5b600e811061074857610747610708565b5b50565b600081905061075982610737565b919050565b60006107698261074b565b9050919050565b6107798161075e565b82525050565b600581106107905761078f610708565b5b50565b60008190506107a18261077f565b919050565b60006107b182610793565b9050919050565b6107c1816107a6565b82525050565b600060608201905081810360008301526107e181866106cf565b90506107f06020830185610770565b6107fd60408301846107b8565b949350505050565b600080fd5b7f4e487b7100000000000000000000000000000000000000000000000000000000600052604160045260246000fd5b610842826106be565b810181811067ffffffffffffffff821117156108615761086061080a565b5b80604052505050565b6000610874610601565b90506108808282610839565b919050565b600080fd5b600080fd5b600080fd5b600067ffffffffffffffff8211156108af576108ae61080a565b5b6108b8826106be565b9050602081019050919050565b82818337600083830152505050565b60006108e76108e284610894565b61086a565b9050828152602081018484840111156109035761090261088f565b5b61090e8482856108c5565b509392505050565b600082601f83011261092b5761092a61088a565b5b813561093b8482602086016108d4565b91505092915050565b600e811061095157600080fd5b50565b60008135905061096381610944565b92915050565b6005811061097657600080fd5b50565b60008135905061098881610969565b92915050565b6000606082840312156109a4576109a3610805565b5b6109ae606061086a565b9050600082013567ffffffffffffffff8111156109ce576109cd610885565b5b6109da84828501610916565b60008301525060206109ee84828501610954565b6020830152506040610a0284828501610979565b60408301525092915050565b60008060408385031215610a2557610a2461060b565b5b600083013567ffffffffffffffff811115610a4357610a42610610565b5b610a4f8582860161098e565b925050602083013567ffffffffffffffff811115610a7057610a6f610610565b5b610a7c8582860161098e565b9150509250929050565b600081519050919050565b600082825260208201905092915050565b6000819050602082019050919050565b600082825260208201905092915050565b6000610ace82610678565b610ad88185610ab2565b9350610ae8818560208601610694565b610af1816106be565b840191505092915050565b610b058161075e565b82525050565b610b14816107a6565b82525050565b60006060830160008301518482036000860152610b378282610ac3565b9150506020830151610b4c6020860182610afc565b506040830151610b5f6040860182610b0b565b508091505092915050565b6000610b768383610b1a565b905092915050565b6000602082019050919050565b6000610b9682610a86565b610ba08185610a91565b935083602082028501610bb285610aa2565b8060005b85811015610bee5784840389528151610bcf8582610b6a565b9450610bda83610b7e565b925060208a01995050600181019050610bb6565b50829750879550505050505092915050565b60006020820190508181036000830152610c1a8184610b8b565b905092915050565b610c2b81610615565b82525050565b6000602082019050610c466000830184610c22565b92915050565b600080600060608486031215610c6557610c6461060b565b5b600084013567ffffffffffffffff811115610c8357610c82610610565b5b610c8f86828701610916565b9350506020610ca086828701610954565b9250506040610cb186828701610979565b9150509250925092565b7f4e487b7100000000000000000000000000000000000000000000000000000000600052602260045260246000fd5b60006002820490506001821680610d0257607f821691505b602082108103610d1557610d14610cbb565b5b50919050565b7f506c656173652073656e64206174206c6561737420302e303520455448000000600082015250565b6000610d51601d83610683565b9150610d5c82610d1b565b602082019050919050565b60006020820190508181036000830152610d8081610d44565b9050919050565b600060ff82169050919050565b7f4e487b7100000000000000000000000000000000000000000000000000000000600052601160045260246000fd5b6000610dce82610d87565b9150610dd983610d87565b9250828201905060ff811115610df257610df1610d94565b5b92915050565b7f4e487b7100000000000000000000000000000000000000000000000000000000600052601260045260246000fd5b6000610e3282610d87565b9150610e3d83610d87565b925082610e4d57610e4c610df8565b5b828206905092915050565b600081905092915050565b6000610e6e82610678565b610e788185610e58565b9350610e88818560208601610694565b80840191505092915050565b6000610ea08285610e63565b9150610eac8284610e63565b91508190509392505050565b60008190508160005260206000209050919050565b60006020601f8301049050919050565b600082821b905092915050565b600060088302610f1a7fffffffffffffffffffffffffffffffffffffffffffffffffffffffffffffffff82610edd565b610f248683610edd565b95508019841693508086168417925050509392505050565b6000819050919050565b6000610f61610f5c610f5784610615565b610f3c565b610615565b9050919050565b6000819050919050565b610f7b83610f46565b610f8f610f8782610f68565b848454610eea565b825550505050565b600090565b610fa4610f97565b610faf818484610f72565b505050565b5b81811015610fd357610fc8600082610f9c565b600181019050610fb5565b5050565b601f82111561101857610fe981610eb8565b610ff284610ecd565b81016020851015611001578190505b61101561100d85610ecd565b830182610fb4565b50505b505050565b600082821c905092915050565b600061103b6000198460080261101d565b1980831691505092915050565b6000611054838361102a565b9150826002028217905092915050565b61106d82610678565b67ffffffffffffffff8111156110865761108561080a565b5b6110908254610cea565b61109b828285610fd7565b600060209050601f8311600181146110ce57600084156110bc578287015190505b6110c68582611048565b86555061112e565b601f1984166110dc86610eb8565b60005b82811015611104578489015182556001820191506020850194506020810190506110df565b86831015611121578489015161111d601f89168261102a565b8355505b6001600288020188555050505b50505050505056fea2646970667358221220ab9592874a962a09256c944462624bbf124e950a6657a11429354567bbbfb1cb64736f6c63430008110033",
  "linkReferences": {},
  "deployedLinkReferences": {}
}