{
  "_format": "hh-sol-artifact-1",
  "contractName": "HamsterNursery",
  "sourceName": "contracts/HamsterNursery.sol",
  "abi": [
    {
      "inputs": [
        {
          "internalType": "string",
          "name": "_name",
          "type": "string"
        },
        {
          "internalType": "enum HamsterNursery.ColorType",
          "name": "_color",
          "type": "uint8"
        },
        {
          "internalType": "enum HamsterNursery.PatternType",
          "name": "_pattern",
          "type": "uint8"
        }
      ],
      "name": "createHamster",
      "outputs": [],
      "stateMutability": "nonpayable",
      "type": "function"
    },
    {
      "inputs": [],
      "name": "getCount",
      "outputs": [
        {
          "internalType": "uint256",
          "name": "",
          "type": "uint256"
        }
      ],
      "stateMutability": "view",
      "type": "function"
    },
    {
      "inputs": [
        {
          "internalType": "uint256",
          "name": "",
          "type": "uint256"
        }
      ],
      "name": "hamsters",
      "outputs": [
        {
          "internalType": "string",
          "name": "name",
          "type": "string"
        },
        {
          "internalType": "enum HamsterNursery.ColorType",
          "name": "color",
          "type": "uint8"
        },
        {
          "internalType": "enum HamsterNursery.PatternType",
          "name": "pattern",
          "type": "uint8"
        }
      ],
      "stateMutability": "view",
      "type": "function"
    }
  ],
  "bytecode": "0x608060405234801561001057600080fd5b506109b7806100206000396000f3fe608060405234801561001057600080fd5b50600436106100415760003560e01c80635660f5f414610046578063a87d942c14610078578063b3e6f64a14610096575b600080fd5b610060600480360381019061005b91906102d1565b6100b2565b60405161006f9392919061044d565b60405180910390f35b61008061018e565b60405161008d919061049a565b60405180910390f35b6100b060048036038101906100ab9190610634565b61019a565b005b600081815481106100c257600080fd5b90600052602060002090600202016000915090508060000180546100e5906106d2565b80601f0160208091040260200160405190810160405280929190818152602001828054610111906106d2565b801561015e5780601f106101335761010080835404028352916020019161015e565b820191906000526020600020905b81548152906001019060200180831161014157829003601f168201915b5050505050908060010160009054906101000a900460ff16908060010160019054906101000a900460ff16905083565b60008080549050905090565b6000604051806060016040528085815260200184600d8111156101c0576101bf61038e565b5b81526020018360048111156101d8576101d761038e565b5b81525090506000819080600181540180825580915050600190039060005260206000209060020201600090919091909150600082015181600001908161021e91906108af565b5060208201518160010160006101000a81548160ff0219169083600d81111561024a5761024961038e565b5b021790555060408201518160010160016101000a81548160ff0219169083600481111561027a5761027961038e565b5b0217905550505050505050565b6000604051905090565b600080fd5b600080fd5b6000819050919050565b6102ae8161029b565b81146102b957600080fd5b50565b6000813590506102cb816102a5565b92915050565b6000602082840312156102e7576102e6610291565b5b60006102f5848285016102bc565b91505092915050565b600081519050919050565b600082825260208201905092915050565b60005b8381101561033857808201518184015260208101905061031d565b60008484015250505050565b6000601f19601f8301169050919050565b6000610360826102fe565b61036a8185610309565b935061037a81856020860161031a565b61038381610344565b840191505092915050565b7f4e487b7100000000000000000000000000000000000000000000000000000000600052602160045260246000fd5b600e81106103ce576103cd61038e565b5b50565b60008190506103df826103bd565b919050565b60006103ef826103d1565b9050919050565b6103ff816103e4565b82525050565b600581106104165761041561038e565b5b50565b600081905061042782610405565b919050565b600061043782610419565b9050919050565b6104478161042c565b82525050565b600060608201905081810360008301526104678186610355565b905061047660208301856103f6565b610483604083018461043e565b949350505050565b6104948161029b565b82525050565b60006020820190506104af600083018461048b565b92915050565b600080fd5b600080fd5b7f4e487b7100000000000000000000000000000000000000000000000000000000600052604160045260246000fd5b6104f782610344565b810181811067ffffffffffffffff82111715610516576105156104bf565b5b80604052505050565b6000610529610287565b905061053582826104ee565b919050565b600067ffffffffffffffff821115610555576105546104bf565b5b61055e82610344565b9050602081019050919050565b82818337600083830152505050565b600061058d6105888461053a565b61051f565b9050828152602081018484840111156105a9576105a86104ba565b5b6105b484828561056b565b509392505050565b600082601f8301126105d1576105d06104b5565b5b81356105e184826020860161057a565b91505092915050565b600e81106105f757600080fd5b50565b600081359050610609816105ea565b92915050565b6005811061061c57600080fd5b50565b60008135905061062e8161060f565b92915050565b60008060006060848603121561064d5761064c610291565b5b600084013567ffffffffffffffff81111561066b5761066a610296565b5b610677868287016105bc565b9350506020610688868287016105fa565b92505060406106998682870161061f565b9150509250925092565b7f4e487b7100000000000000000000000000000000000000000000000000000000600052602260045260246000fd5b600060028204905060018216806106ea57607f821691505b6020821081036106fd576106fc6106a3565b5b50919050565b60008190508160005260206000209050919050565b60006020601f8301049050919050565b600082821b905092915050565b6000600883026107657fffffffffffffffffffffffffffffffffffffffffffffffffffffffffffffffff82610728565b61076f8683610728565b95508019841693508086168417925050509392505050565b6000819050919050565b60006107ac6107a76107a28461029b565b610787565b61029b565b9050919050565b6000819050919050565b6107c683610791565b6107da6107d2826107b3565b848454610735565b825550505050565b600090565b6107ef6107e2565b6107fa8184846107bd565b505050565b5b8181101561081e576108136000826107e7565b600181019050610800565b5050565b601f8211156108635761083481610703565b61083d84610718565b8101602085101561084c578190505b61086061085885610718565b8301826107ff565b50505b505050565b600082821c905092915050565b600061088660001984600802610868565b1980831691505092915050565b600061089f8383610875565b9150826002028217905092915050565b6108b8826102fe565b67ffffffffffffffff8111156108d1576108d06104bf565b5b6108db82546106d2565b6108e6828285610822565b600060209050601f8311600181146109195760008415610907578287015190505b6109118582610893565b865550610979565b601f19841661092786610703565b60005b8281101561094f5784890151825560018201915060208501945060208101905061092a565b8683101561096c5784890151610968601f891682610875565b8355505b6001600288020188555050505b50505050505056fea26469706673582212203b232dcbad1eb7052291b3b972673161ea7739e1ce7892f0a2865837f757205864736f6c63430008110033",
  "linkReferences": {},
  "deployedLinkReferences": {}
}