{
  "_format": "hh-sol-artifact-1",
  "contractName": "HamsterNursery",
  "sourceName": "contracts/HamsterNursery.sol",
  "abi": [
    {
      "inputs": [
        {
          "internalType": "uint256",
          "name": "",
          "type": "uint256"
        }
      ],
      "name": "hamsters",
      "outputs": [
        {
          "internalType": "string",
          "name": "name",
          "type": "string"
        },
        {
          "internalType": "enum HamsterNursery.ColorType",
          "name": "color",
          "type": "uint8"
        },
        {
          "internalType": "enum HamsterNursery.PatternType",
          "name": "pattern",
          "type": "uint8"
        }
      ],
      "stateMutability": "view",
      "type": "function"
    }
  ],
  "bytecode": "0x608060405234801561001057600080fd5b506103c9806100206000396000f3fe608060405234801561001057600080fd5b506004361061002b5760003560e01c80635660f5f414610030575b600080fd5b61004a60048036038101906100459190610179565b610062565b604051610059939291906102f5565b60405180910390f35b6000818154811061007257600080fd5b906000526020600020906002020160009150905080600001805461009590610362565b80601f01602080910402602001604051908101604052809291908181526020018280546100c190610362565b801561010e5780601f106100e35761010080835404028352916020019161010e565b820191906000526020600020905b8154815290600101906020018083116100f157829003601f168201915b5050505050908060010160009054906101000a900460ff16908060010160019054906101000a900460ff16905083565b600080fd5b6000819050919050565b61015681610143565b811461016157600080fd5b50565b6000813590506101738161014d565b92915050565b60006020828403121561018f5761018e61013e565b5b600061019d84828501610164565b91505092915050565b600081519050919050565b600082825260208201905092915050565b60005b838110156101e05780820151818401526020810190506101c5565b60008484015250505050565b6000601f19601f8301169050919050565b6000610208826101a6565b61021281856101b1565b93506102228185602086016101c2565b61022b816101ec565b840191505092915050565b7f4e487b7100000000000000000000000000000000000000000000000000000000600052602160045260246000fd5b600e811061027657610275610236565b5b50565b600081905061028782610265565b919050565b600061029782610279565b9050919050565b6102a78161028c565b82525050565b600581106102be576102bd610236565b5b50565b60008190506102cf826102ad565b919050565b60006102df826102c1565b9050919050565b6102ef816102d4565b82525050565b6000606082019050818103600083015261030f81866101fd565b905061031e602083018561029e565b61032b60408301846102e6565b949350505050565b7f4e487b7100000000000000000000000000000000000000000000000000000000600052602260045260246000fd5b6000600282049050600182168061037a57607f821691505b60208210810361038d5761038c610333565b5b5091905056fea264697066735822122086d55f030fc47a11f8f6844164a5e302c357b9443faa4f6cabd59e1cfc4dd11d64736f6c63430008110033",
  "linkReferences": {},
  "deployedLinkReferences": {}
}